:020000040800F2
:100000000028002049170008D9160008DF1600084C
:10001000E5160008EB160008F116000800000000C5
:10002000000000000000000000000000F7160008BB
:1000300003170008000000000F1700081B17000836
:1000400091170008911700089117000891170008F0
:1000500091170008911700089117000891170008E0
:1000600091170008911700089117000891170008D0
:1000700091170008911700089117000891170008C0
:1000800091170008911700089117000891170008B0
:1000900091170008911700089117000891170008A0
:1000A0009117000891170008911700089117000890
:1000B0002917000891170008000000009117000898
:1000C00091170008000000000000000091170008D0
:1000D00000000000911700089117000800000000C0
:1000E0009117000891170008911700080000000000
:1000F0000000000000000000000000000000000000
:0C01000000000000000000005FF808F1A3
:10010C0010B5054C237833B9044B13B10448AFF345
:10011C0000800123237010BD30000020000000007F
:10012C00EC2D000808B5034B1BB103490348AFF392
:10013C00008008BD0000000034000020EC2D0008F9
:10014C0090B583B000AF0023FB7149E0FA79FB79DD
:10015C002749895C274AD154FB79274A52F8232036
:10016C00FB79264931F81330FC791946104601F019
:10017C00F7FD03461A461E4B1A55FB791C4AD25CF6
:10018C00FB791C49CB5C9A4227D1FB791C4AD25C87
:10019C00FB791749CB5C9A4212D0FA79FB79144956
:1001AC00895C174AD154FB79114AD35C002B14D1CA
:1001BC00FB79144A0021D154134B64221A600CE0D1
:1001CC00114B1B68013B104A13600F4B1B68002B33
:1001DC0003DCFB790A4A0121D154FB790133FB7111
:1001EC00FB79022BB2D900BF00BF0C37BD4690BDC6
:1001FC004C000020500000201000002008000020BF
:10020C0004000020000000205400002080B483B0C3
:10021C0000AF7860094A7B6813441B78002B06D129
:10022C00064A7B68134401221A70012300E0002364
:10023C0018460C37BD4680BC704700BF000000203C
:10024C0080B582B000AF78607B68002B03D07B68F0
:10025C00012B22D043E000228021234801F097FD9E
:10026C0001224FF48071204801F091FD00224FF4DF
:10027C0000711D4801F08BFD01224FF480611A487A
:10028C0001F085FD194B1B68184600F081FC174BDB
:10029C009B68184600F00CFE21E0012280211248D8
:1002AC0001F075FD00224FF480710F4801F06FFDD5
:1002BC0001224FF400710C4801F069FD00224FF44B
:1002CC008061094801F063FD084B5B68184600F03B
:1002DC005FFC064BDB68184600F0EAFD00BF00BF70
:1002EC000837BD4680BD00BF000801406C000020EF
:1002FC0080B483B000AF786039607B68184A82FBA9
:10030C0003129210DB17D31A164A13607968144B38
:10031C0083FB01239A10CB17D21A13469B0013446C
:10032C005B00CA1A0F4B5A603B680D4A82FB0312E2
:10033C009210DB17D31A0B4A93603968084B83FB76
:10034C0001239A10CB17D21A13469B0013445B005F
:10035C00CA1A044BDA6000BF0C37BD4680BC70472C
:10036C00676666666C00002080B500AF114B0222F8
:10037C001A60114B04221A60104B1B781A46104B52
:10038C001A600E4B9B781A460E4B1A604FF47A701B
:10039C0001F098F80C4B01221A700C4B01221A60D8
:1003AC00074B1B68074A126811461846FFF7A0FF57
:1003BC0000BF80BD7C0000208000002020000020B9
:1003CC005C0000206000002058000020E8000020A5
:1003DC0080B500AF974B1B68022B2AD1002202215B
:1003EC00954801F0D4FC01220421934801F0CFFC84
:1003FC0001220821904801F0CAFC904B1B68002B8D
:10040C0074D18C4B04221A60012202218A4801F01B
:10041C00BEFC01220421884801F0B9FC002208210D
:10042C00854801F0B4FC864B9B781A46834B1A60C6
:10043C005CE0804B1B68032B2AD1012202217E48F1
:10044C0001F0A5FC002204217B4801F0A0FC012254
:10045C000821794801F09BFC784B1B68002B45D197
:10046C00744B02221A6000220221734801F08FFCA7
:10047C0001220421704801F08AFC012208216E48F7
:10048C0001F085FC6E4B1B781A466C4B1A602DE004
:10049C00684B1B68042B29D101220221664801F00C
:1004AC0076FC01220421644801F071FC0022082131
:1004BC00614801F06CFC614B1B68002B16D15D4B45
:1004CC0003221A60012202215B4801F060FC002229
:1004DC000421594801F05BFC01220821564801F027
:1004EC0056FC574B5B781A46544B1A60554B1B689D
:1004FC00022B2AD1002210214F4801F048FC012286
:10050C0020214D4801F043FC012240214A4801F0D2
:10051C003EFC4D4B1B68002B74D14A4B04221A60D5
:10052C0001221021444801F032FC012220214248D2
:10053C0001F02DFC002240213F4801F028FC404BEB
:10054C009B781A46404B1A605CE03E4B1B68032BB1
:10055C002AD101221021384801F019FC0022202157
:10056C00354801F014FC01224021334801F00FFC06
:10057C00354B1B68002B45D1324B02221A600022EE
:10058C0010212D4801F003FC012220212A4801F002
:10059C00FEFB01224021284801F0F9FB284B1B7877
:1005AC001A46294B1A602DE0264B1B68042B29D1C7
:1005BC0001221021204801F0EAFB012220211E48D3
:1005CC0001F0E5FB002240211B4801F0E0FB1E4B33
:1005DC001B68002B16D11B4B03221A600122102121
:1005EC00154801F0D4FB00222021134801F0CFFB69
:1005FC0001224021104801F0CAFB114B5B781A46CE
:10060C00114B1A60114B1B78012B11D1104B1B682D
:10061C00012B0DD1094B1B68013B084A13600A4B97
:10062C001B68013B084A13604FF47A7000F04AFFD4
:10063C0000BF80BD7C000020000801405C00002051
:10064C0020000020800000206000002058000020C6
:10065C00CC00002080B483B000AF0346FB71FB7963
:10066C00094AD25C0132D1B2074AD154FB79064A0D
:10067C00D35C632B03D9FB79034A0121D15400BF0E
:10068C000C37BD4680BC70471C00002080B400AF06
:10069C00084B1B780133DAB2064B1A70054B1B78EA
:1006AC00042B02D9034B01221A7000BFBD4680BC3B
:1006BC00704700BF5800002080B483B000AF002307
:1006CC007B600BE00A4A7B6813441978094A7B6803
:1006DC0013440A461A707B6801337B607B68022BDB
:1006EC00F0DD00BF00BF0C37BD4680BC704700BFBB
:1006FC001C0000202000002080B582B000AF034613
:10070C00FB71374B1B78012B66D0364B1B68012BCA
:10071C0062D1FB79002B1CD10221334801F04FFB35
:10072C001021314801F04BFB012204212E4801F02D
:10073C002EFB012220212C4801F029FB012208214B
:10074C00294801F024FB01224021274801F01FFB1E
:10075C003EE0FB79012B1CD10421234801F02FFB37
:10076C002021214801F02BFB012202211E4801F01F
:10077C000EFB012210211C4801F009FB012208216B
:10078C00194801F004FB01224021174801F0FFFA3F
:10079C001EE0FB79022B1BD10821134801F00FFB43
:1007AC004021114801F00BFB012204210E4801F0FD
:1007BC00EEFA012220210C4801F0E9FA0122022173
:1007CC00094801F0E4FA01221021074801F0DFFA90
:1007DC004FF4FA7000F05AFE00BF0837BD4680BDDA
:1007EC0058000020D40000200008014080B500AF64
:1007FC000020FFF70BFD0346002B07D0FFF746FF49
:10080C00894B00221A60894B01221A60884B1B7895
:10081C00013B032B00F2898101A252F823F000BFA7
:10082C003D0800089108000863090008650A0008E3
:10083C007E4B1B68012B1AD17C4B00221A607D4B1E
:10084C0002221A607C4B04221A607C4B1B781A46DD
:10085C007B4B1A60794B9B781A467A4B1A60724B19
:10086C0000221A604FF47A7000F02CFE5DE1FFF765
:10087C00AFFD734B1B68734A126811461846FFF79D
:10088C0037FD52E1694B1B68012B13D141F28830C3
:10089C0000F034FE6C4B01221A60644B00221A608B
:1008AC0001220221694801F072FA012210216748E5
:1008BC0001F06DFA0020FFF71FFF0120FFF7A6FCE7
:1008CC000346002B0CD05B4B0C221A605A4B0C22AB
:1008DC001A6041F2883000F011FE0020FFF7BAFEDA
:1008EC000220FFF793FC0346002B1AD0FFF7E4FE1F
:1008FC004F4B01221A704C4B00221A604F4B1B7845
:10090C001A464F4B1A604D4B9B781A464D4B1A604A
:10091C00484B02221A60484B04221A60434B0122B6
:10092C001A604B4B1B68012B0BD1424B02221A60F5
:10093C00414B04221A603E4B01221A703B4B0122A0
:10094C001A603B4B1B781A46424B1B7819461046D3
:10095C00FFF7CEFCE9E0354B1B68012B13D141F2BC
:10096C00883000F0CBFD384B01221A602F4B00224F
:10097C001A6001220421354801F009FA01222021D4
:10098C00324801F004FA0120FFF7B6FE0120FFF710
:10099C003DFC0346002B0CD0264B0D221A60264B37
:1009AC000D221A6041F2883000F0A8FD0120FFF7FB
:1009BC0051FE0220FFF72AFC0346002B1AD0FFF74A
:1009CC007BFE1B4B01221A70174B00221A601B4B2B
:1009DC001B781A461A4B1A60184B9B781A46194BFF
:1009EC001A60144B02221A60134B04221A600F4B2C
:1009FC0001221A60164B1B68012B0BD10D4B0222E6
:100A0C001A600D4B04221A60094B01221A70074B15
:100A1C0001221A60064B1B781A460E4B5B7819465E
:100A2C001046FFF765FC80E06400002068000020A1
:100A3C00580000207C0000208000002020000020B6
:100A4C005C00002060000020D40000200008014061
:100A5C00DC0000201C000020404B1B68012B13D134
:100A6C0041F2883000F04AFD3D4B01221A603B4BAD
:100A7C0000221A60012208213A4801F088F901226B
:100A8C004021384801F083F90220FFF735FE0120A0
:100A9C00FFF7BCFB0346002B0CD0334B0E221A6025
:100AAC00324B0E221A6041F2883000F027FD0220F2
:100ABC00FFF7D0FD0220FFF7A9FB0346002B1AD04D
:100ACC00FFF7FAFD2A4B01221A702A4B00221A60FA
:100ADC00294B1B781A46294B1A60274B9B781A46D0
:100AEC00274B1A60204B02221A60204B04221A60FA
:100AFC001A4B01221A60234B1B68012B0BD11A4B8A
:100B0C0002221A60194B04221A60194B01221A7026
:100B1C00124B01221A60164B1B781A461A4B9B7803
:100B2C0019461046FFF7E4FB00BF184B1B68012B5E
:100B3C0012D1104B1B685A1C0E490A601846FFF75D
:100B4C007FFB0C4B1B68012B02DD0A4B00221A6049
:100B5C004FF4FA7000F0EEFC00BF80BD680000207E
:100B6C00D4000020000801407C0000208000002000
:100B7C005800002064000020200000205C000020B1
:100B8C0060000020DC0000201C000020E800002099
:100B9C0080B582B000AF78607B68002B23D1002237
:100BAC000121C24801F0F3F800220221BF4801F0F4
:100BBC00EEF800220421BD4801F0E9F800220821DA
:100BCC00BA4801F0E4F800221021B84801F0DFF82F
:100BDC0000222021B54801F0DAF801224021B34867
:100BEC0001F0D5F85DE17B68012B23D101220121B5
:100BFC00AE4801F0CCF800220221AC4801F0C7F855
:100C0C0000220421A94801F0C2F801220821A748BA
:100C1C0001F0BDF801221021A44801F0B8F801221E
:100C2C002021A24801F0B3F8012240219F4801F095
:100C3C00AEF836E17B68022B23D1002201219B48C0
:100C4C0001F0A5F800220221984801F0A0F8012239
:100C5C000421964801F09BF800220821934801F0EA
:100C6C0096F800221021914801F091F801222021E0
:100C7C008E4801F08CF8002240218C4801F087F856
:100C8C000FE17B68032B23D100220121874801F05F
:100C9C007EF800220221854801F079F80022042117
:100CAC00824801F074F800220821804801F06FF8A6
:100CBC00012210217D4801F06AF8012220217B4895
:100CCC0001F065F800224021784801F060F8E8E076
:100CDC007B68042B23D101220121744801F057F8C1
:100CEC0000220221714801F052F8002204216F48C1
:100CFC0001F04DF8012208216C4801F048F801225E
:100D0C0010216A4801F043F800222021674801F0C5
:100D1C003EF800224021654801F039F8C1E07B68BB
:100D2C00052B23D100220121604801F030F801226B
:100D3C0002215E4801F02BF8002204215B4801F0EF
:100D4C0026F800220821594801F021F8012210212F
:100D5C00564801F01CF800222021544801F017F8E5
:100D6C0000224021514801F012F89AE07B68062BD2
:100D7C0023D1002201214D4801F009F80122022162
:100D8C004A4801F004F800220421484800F0FFFF13
:100D9C0000220821454800F0FAFF002210214348A8
:100DAC0000F0F5FF00222021404800F0F0FF002267
:100DBC0040213E4800F0EBFF73E07B68072B23D10A
:100DCC0000220121394800F0E2FF002202213748BD
:100DDC0000F0DDFF00220421344800F0D8FF01228E
:100DEC000821324800F0D3FF012210212F4800F0D7
:100DFC00CEFF012220212D4800F0C9FF0122402105
:100E0C002A4800F0C4FF4CE07B68082B23D1002259
:100E1C000121264800F0BBFF00220221234800F0EC
:100E2C00B6FF00220421214800F0B1FF0022082166
:100E3C001E4800F0ACFF002210211C4800F0A7FF58
:100E4C0000222021194800F0A2FF0022402117485F
:100E5C0000F09DFF25E07B68092B22D100220121A7
:100E6C00124800F094FF00220221104800F08FFF7E
:100E7C00002204210D4800F08AFF002208210B48B3
:100E8C0000F085FF01221021084800F080FF0022AD
:100E9C002021064800F07BFF00224021034800F08F
:100EAC0076FF00BF0837BD4680BD00BF000C014077
:100EBC0080B582B000AF78607B68002B29D100220E
:100ECC008021C84800F063FF00224FF48071C548B0
:100EDC0000F05DFF00224FF40071C24800F057FF94
:100EEC0000224FF48061BF4800F051FF00224FF404
:100EFC000061BC4800F04BFF00224FF48051B94810
:100F0C0000F045FF01224FF40051B64800F03FFFBE
:100F1C0096E17B68012B29D101228021B14800F098
:100F2C0036FF00224FF48071AE4800F030FF0022F3
:100F3C004FF40071AB4800F02AFF01224FF480619E
:100F4C00A84800F024FF01224FF40061A54800F0EE
:100F5C001EFF01224FF48051A24800F018FF01221D
:100F6C004FF400519F4800F012FF69E17B68022B9F
:100F7C0029D1002280219B4800F009FF00224FF468
:100F8C008071984800F003FF01224FF400719548DE
:100F9C0000F0FDFE00224FF48061924800F0F7FE55
:100FAC0000224FF400618F4800F0F1FE01224FF453
:100FBC0080518C4800F0EBFE00224FF40051894820
:100FCC0000F0E5FE3CE17B68032B29D10022802157
:100FDC00844800F0DCFE00224FF48071814800F060
:100FEC00D6FE00224FF400717E4800F0D0FE0022A5
:100FFC004FF480617B4800F0CAFE01224FF400617F
:10100C00784800F0C4FE01224FF48051754800F07E
:10101C00BEFE00224FF40051724800F0B8FE0FE102
:10102C007B68042B29D1012280216E4800F0AFFE91
:10103C0000224FF480716B4800F0A9FE00224FF49F
:10104C000071684800F0A3FE01224FF480616548EE
:10105C0000F09DFE01224FF40061624800F097FE03
:10106C0000224FF480515F4800F091FE00224FF4B3
:10107C0000515C4800F08BFEE2E07B68052B29D127
:10108C0000228021574800F082FE01224FF480712B
:10109C00544800F07CFE00224FF40071514800F0DF
:1010AC0076FE00224FF480614E4800F070FE012263
:1010BC004FF400614B4800F06AFE00224FF480515F
:1010CC00484800F064FE00224FF40051454800F0FF
:1010DC005EFEB5E07B68062B29D1002280214148B9
:1010EC0000F055FE01224FF480713E4800F04FFE97
:1010FC0000224FF400713B4800F049FE00224FF4EF
:10110C008061384800F043FE00224FF400613548FE
:10111C0000F03DFE00224FF48051324800F037FEC3
:10112C0000224FF400512F4800F031FE88E07B681C
:10113C00072B29D1002280212A4800F028FE00220A
:10114C004FF48071274800F022FE00224FF400710A
:10115C00244800F01CFE01224FF48061214800F06D
:10116C0016FE01224FF400611E4800F010FE012211
:10117C004FF480511B4800F00AFE01224FF400513D
:10118C00184800F004FE5BE07B68082B2CD1002291
:10119C008021144800F0FBFD00224FF480711148AF
:1011AC0000F0F5FD00224FF400710E4800F0EFFD49
:1011BC0000224FF480610B4800F0E9FD00224FF44F
:1011CC000061084800F0E3FD00224FF4805105480F
:1011DC0000F0DDFD00224FF40051024800F0D7FD75
:1011EC002EE000BF000C01407B68092B28D10022A7
:1011FC008021154800F0CBFD00224FF4807112487D
:10120C0000F0C5FD00224FF400710F4800F0BFFD47
:10121C0000224FF480610C4800F0B9FD01224FF41C
:10122C000061094800F0B3FD00224FF480510648DC
:10123C0000F0ADFD00224FF40051034800F0A7FD73
:10124C0000BF0837BD4680BD000C014080B500AF23
:10125C0000F09AFA00F00EF800F094F800F046F85E
:10126C00034801F0FDF9FFF77FF8FFF7BFFAFCE741
:10127C008400002080B590B000AF07F1180328223D
:10128C000021184601F0A4FD3B1D00221A605A6093
:10129C009A60DA601A610223BB610123BB621023DE
:1012AC00FB6200237B6307F11803184600F0A0FDD6
:1012BC000346002B01D000F0E3F80F237B600023E2
:1012CC00BB600023FB6000233B6100237B613B1D63
:1012DC000021184601F00EF80346002B01D000F057
:1012EC00CFF800BF4037BD4680BD000080B586B04A
:1012FC0000AF07F1080300221A605A609A60DA60A6
:10130C003B4600221A605A601D4B4FF080421A6017
:10131C001B4B41F63F725A60194B00229A60184BD6
:10132C000922DA60164B00221A61154B00229A61D1
:10133C00134801F045F90346002B01D000F0A0F84A
:10134C004FF48053BB6007F1080319460C4801F0B9
:10135C00DBFA0346002B01D000F092F800233B602F
:10136C0000237B603B461946054801F0A3FC03466D
:10137C00002B01D000F084F800BF1837BD4680BDAB
:10138C008400002080B588B000AF07F11003002264
:10139C001A605A609A60DA602F4B9B692E4A43F0B0
:1013AC00100393612C4B9B6903F01003FB60FB68EB
:1013BC00294B9B69284A43F004039361264B9B6994
:1013CC0003F00403BB60BB68234B9B69224A43F0C8
:1013DC0008039361204B9B6903F008037B607B68D7
:1013EC00002240F2FE711D4800F0D1FC002243F6B1
:1013FC00FF711B4800F0CBFC4FF460433B610023B2
:10140C007B610123BB6107F110031946154800F0FD
:10141C002BFB40F2FE733B6101237B610023BB611C
:10142C000223FB6107F1100319460C4800F01CFB6A
:10143C0043F6FF733B6101237B610023BB610223F5
:10144C00FB6107F110031946054800F00DFB00BFC6
:10145C002037BD4680BD00BF00100240000801408F
:10146C00000C01400010014080B582B000AF7860E4
:10147C0000F07CF8FEF764FE00BF0837BD4680BD67
:10148C0080B400AF72B600BFFEE7000080B483B03A
:10149C0000AF78607B68084A82FB03129210DB175E
:1014AC00D31A064A1360064B00221A6000BF0C3791
:1014BC00BD4680BC704700BF67666666D8000020DA
:1014CC00D400002080B483B000AF78607B68084AF9
:1014DC0082FB03129210DB17D31A064A1360064BD9
:1014EC0000221A6000BF0C37BD4680BC704700BF9D
:1014FC0067666666D0000020CC00002080B483B004
:10150C0000AF78607B68084A82FB03129210DB17ED
:10151C00D31A064A1360064B00221A6000BF0C3720
:10152C00BD4680BC704700BF67666666E000002061
:10153C00DC00002080B483B000AF78607B68084A80
:10154C0082FB03129210DB17D31A064A1360064B68
:10155C0000221A6000BF0C37BD4680BC704700BF2C
:10156C0067666666E4000020E800002080B400AFE7
:10157C00294B1B68002B0BDD274B1B68013B264AB4
:10158C001360254B1B68002B02DC244B01221A60D4
:10159C00234B1B68002B0BDD214B1B68013B204AA6
:1015AC0013601F4B1B68002B02DC1E4B01221A60C0
:1015BC001D4B1B68002B0BDD1B4B1B68013B1A4A98
:1015CC001360194B1B68002B02DC184B01221A60AC
:1015DC00174B1B68002B0BDD154B1B68013B144A8A
:1015EC001360134B1B68002B02DC124B01221A6098
:1015FC00114B1B68002B0BDD0F4B1B68013B0E4A7C
:10160C0013600D4B1B68002B02DC0C4B01221A6083
:10161C0000BFBD4680BC7047D0000020CC0000202D
:10162C00E0000020DC000020E4000020E8000020A6
:10163C00D8000020D4000020EC000020F000002096
:10164C0080B483B000AF0E4B9B690D4A43F001038D
:10165C0093610B4B9B6903F001037B607B68084B28
:10166C00DB69074A43F08053D361054BDB6903F018
:10167C0080533B603B6800BF0C37BD4680BC704755
:10168C000010024080B584B000AF78607B681B68A6
:10169C00B3F1804F13D10C4BDB690B4A43F00103C0
:1016AC00D361094BDB6903F00103FB60FB6800228B
:1016BC0000211C2000F0A1F91C2000F0BAF900BF99
:1016CC001037BD4680BD00BF0010024080B400AF93
:1016DC00FEE780B400AFFEE780B400AFFEE780B455
:1016EC0000AFFEE780B400AFFEE780B400AF00BFF0
:1016FC00BD4680BC704780B400AF00BFBD4680BC07
:10170C00704780B400AF00BFBD4680BC704780B549
:10171C0000AF00F07FF800BF80BD000080B500AFC7
:10172C00024800F0E9FF00BF80BD00BF840000202C
:10173C0080B400AF00BFBD4680BC70470C480D495B
:10174C000D4A002302E0D458C4500433C4188C4210
:10175C00F9D30A4A0A4C002301E013600432A24276
:10176C00FBD3FFF7E5FF01F00FFBFFF76FFD7047B1
:10177C0000000020300000202C2E0008300000203B
:10178C00F8000020FEE7000080B500AF084B1B6896
:10179C00074A43F010031360032000F023F90F20D5
:1017AC0000F008F8FFF74CFF0023184680BD00BF7F
:1017BC000020024080B582B000AF7860124B1A68EE
:1017CC00124B1B7819464FF47A73B3FBF1F3B2FB4F
:1017DC00F3F3184600F03BF90346002B01D001232C
:1017EC000EE07B680F2B0AD8002279684FF0FF308F
:1017FC0000F003F9064A7B681360002300E0012324
:10180C0018460837BD4680BD240000202C0000205F
:10181C002800002080B400AF054B1B781A46054BFE
:10182C001B681344034A136000BFBD4680BC70475D
:10183C002C000020F400002080B400AF024B1B6889
:10184C001846BD4680BC7047F400002080B485B0BB
:10185C0000AF78607B6803F00703FB600C4BDB6820
:10186C00BB60BA684FF6FF031340BB60FB681A02FB
:10187C00BB68134343F0BF6343F40033BB60044ABB
:10188C00BB68D36000BF1437BD4680BC704700BF37
:10189C0000ED00E080B400AF044BDB681B0A03F0E2
:1018AC0007031846BD4680BC704700BF00ED00E042
:1018BC0080B483B000AF0346FB7197F90730002B5F
:1018CC000BDBFB7903F01F02064997F907305B0924
:1018DC00012000FA02F241F8232000BF0C37BD466C
:1018EC0080BC704700E100E080B483B000AF0346D9
:1018FC003960FB7197F90730002B0ADB3B68DAB2D1
:10190C000C4997F907301201D2B20B4483F800232B
:10191C000AE03B68DAB20849FB7903F00F03043B99
:10192C001201D2B20B441A7600BF0C37BD4680BCF4
:10193C00704700BF00E100E000ED00E080B489B02A
:10194C0000AFF860B9607A60FB6803F00703FB61D5
:10195C00FB69C3F10703042B28BF0423BB61FB699C
:10196C000433062B02D9FB69033B00E000237B61A7
:10197C004FF0FF32BB6902FA03F3DA43BB681A403B
:10198C007B699A404FF0FF317B6901FA03F3D9432D
:10199C007B680B40134318462437BD4680BC704708
:1019AC0080B582B000AF78607B68013BB3F1807F7B
:1019BC0001D301230FE00A4A7B68013B53600F21DE
:1019CC004FF0FF30FFF790FF054B00229A60044B5D
:1019DC0007221A60002318460837BD4680BD00BF99
:1019EC0010E000E080B582B000AF78607868FFF757
:1019FC002DFF00BF0837BD4680BD80B586B000AF57
:101A0C000346B9607A60FB7300237B61FFF742FFEA
:101A1C0078617A68B9687869FFF790FF024697F9A0
:101A2C000F3011461846FFF75FFF00BF1837BD4651
:101A3C0080BD80B582B000AF0346FB7197F90730CB
:101A4C001846FFF735FF00BF0837BD4680BD80B58F
:101A5C0082B000AF78607868FFF7A2FF03461846A3
:101A6C000837BD4680BD000080B48BB000AF7860F5
:101A7C00396000237B6200233B6261E101227B6AB7
:101A8C0002FA03F3FB613B681B68FA691340BB6104
:101A9C00BA69FB699A4240F050813B685B68974A8F
:101AAC0093425ED0954A934275D8954A934258D04A
:101ABC00934A93426FD8934A934252D0914A93429D
:101ACC0069D8914A93424CD08F4A934263D88F4A3B
:101ADC00934246D08D4A93425DD8122B2AD8122BB2
:101AEC0059D801A252F823F06F1B0008491B0008BB
:101AFC005B1B00089D1B0008A31B0008A31B000810
:101B0C00A31B0008A31B0008A31B0008A31B0008B1
:101B1C00A31B0008A31B0008A31B0008A31B0008A1
:101B2C00A31B0008A31B0008A31B0008511B0008E3
:101B3C00651B0008764A934213D02CE03B68DB68A7
:101B4C003B6229E03B68DB6804333B6224E03B6882
:101B5C00DB6808333B621FE03B68DB680C333B629D
:101B6C001AE03B689B68002B02D104233B6213E014
:101B7C003B689B68012B05D108233B627B68FA69A3
:101B8C001A6109E008233B627B68FA695A6103E039
:101B9C0000233B6200E000BFBB69FF2B01D87B68D0
:101BAC0001E07B6804337B61BB69FF2B02D87B6A45
:101BBC009B0002E07B6A083B9B003B617B691A68D7
:101BCC000F213B6901FA03F3DB431A40396A3B6985
:101BDC0001FA03F31A437B691A603B685B6803F0F4
:101BEC008053002B00F0A9804A4B9B69494A43F073
:101BFC0001039361474B9B6903F00103BB60BB6816
:101C0C00454A7B6A9B08023352F82330FB607B6A9F
:101C1C0003F003039B000F2202FA03F3DB43FA6881
:101C2C001340FB607B683D4A93420DD07B683C4A75
:101C3C00934207D07B683B4A934201D1022304E0D4
:101C4C00032302E0012300E000237A6A02F003027E
:101C5C0092009340FA681343FB602F497B6A9B0800
:101C6C000233FA6841F823203B685B6803F4803345
:101C7C00002B06D02C4B1A682B49BB6913430B6005
:101C8C0006E0294B1A68BB69DB43274913400B60FC
:101C9C003B685B6803F40033002B06D0224B5A6878
:101CAC002149BB6913434B6006E01F4B5A68BB6963
:101CBC00DB431D4913404B603B685B6803F48013A6
:101CCC00002B06D0184B9A681749BB6913438B60DD
:101CDC0006E0154B9A68BB69DB43134913408B60D4
:101CEC003B685B6803F40013002B1FD00E4BDA68C3
:101CFC000D49BB691343CB601FE000BF00003210DD
:101D0C000000311000002210000021100000121001
:101D1C0000001110001002400000014000080140BA
:101D2C00000C014000100140000401400B4BDA682C
:101D3C00BB69DB4309491340CB607B6A01337B628F
:101D4C003B681A687B6A22FA03F3002B7FF496AE89
:101D5C0000BF00BF2C37BD4680BC7047000401405B
:101D6C0080B485B000AF78600B467B807B689A6846
:101D7C007B881340002B02D00123FB7301E000236E
:101D8C00FB73FB7B18461437BD4680BC704780B490
:101D9C0083B000AF78600B467B8013467B707B78FA
:101DAC00002B03D07A887B681A6103E07B881A04C5
:101DBC007B681A6100BF0C37BD4680BC704780B48D
:101DCC0085B000AF78600B467B807B68DB68FB607E
:101DDC007A88FB6813401A04FB68D9437B880B4054
:101DEC001A437B681A6100BF1437BD4680BC70472C
:101DFC0080B586B000AF78607B68002B01D10123E1
:101E0C0072E27B681B6803F00103002B00F08780F3
:101E1C00924B5B6803F00C03042B0CD08F4B5B686C
:101E2C0003F00C03082B12D18C4B5B6803F480334A
:101E3C00B3F5803F0BD1894B1B6803F40033002BA7
:101E4C006CD07B685B68002B68D101234CE27B680B
:101E5C005B68B3F5803F06D1804B1B687F4A43F427
:101E6C00803313602EE07B685B68002B0CD17B4BBE
:101E7C001B687A4A23F480331360784B1B68774ACB
:101E8C0023F4802313601DE07B685B68B3F5A02FFF
:101E9C000CD1724B1B68714A43F4802313606F4B57
:101EAC001B686E4A43F4803313600BE06B4B1B686A
:101EBC006A4A23F480331360684B1B68674A23F427
:101ECC00802313607B685B68002B13D0FFF7B4FC96
:101EDC00386108E0FFF7B0FC02463B69D31A642B6B
:101EEC0001D9032300E25D4B1B6803F40033002B84
:101EFC00F0D014E0FFF7A0FC386108E0FFF79CFC81
:101F0C0002463B69D31A642B01D90323ECE1534BF2
:101F1C001B6803F40033002BF0D100E000BF7B689A
:101F2C001B6803F00203002B63D04C4B5B6803F07F
:101F3C000C03002B0BD0494B5B6803F00C03082BF4
:101F4C001CD1464B5B6803F48033002B16D1434BFA
:101F5C001B6803F00203002B05D07B681B69012B67
:101F6C0001D00123C0E13D4B1B6823F0F8027B68D4
:101F7C005B69DB00394913430B603AE07B681B69F2
:101F8C00002B20D0364B01221A60FFF755FC38612C
:101F9C0008E0FFF751FC02463B69D31A022B01D92A
:101FAC000323A1E12D4B1B6803F00203002BF0D09F
:101FBC002A4B1B6823F0F8027B685B69DB0027491E
:101FCC0013430B6015E0264B00221A60FFF734FC1C
:101FDC00386108E0FFF730FC02463B69D31A022B4C
:101FEC0001D9032380E11D4B1B6803F00203002B76
:101FFC00F0D17B681B6803F00803002B3AD07B6898
:10200C009B69002B19D0174B01221A60FFF714FCA7
:10201C00386108E0FFF710FC02463B69D31A022B2B
:10202C0001D9032360E10D4B5B6A03F00203002B23
:10203C00F0D0012000F0A6FA1CE00A4B00221A6036
:10204C00FFF7FAFB38610FE0FFF7F6FB02463B693E
:10205C00D31A022B08D9032346E100BF001002401B
:10206C000000424280044242924B5B6A03F002033E
:10207C00002BE9D17B681B6803F00403002B00F0F4
:10208C00A6800023FB758B4BDB6903F08053002B80
:10209C000DD1884BDB69874A43F08053D361854B64
:1020AC00DB6903F08053BB60BB680123FB75824B7B
:1020BC001B6803F48073002B18D17F4B1B687E4A7E
:1020CC0043F480731360FFF7B7FB386108E0FFF748
:1020DC00B3FB02463B69D31A642B01D9032303E1FA
:1020EC00754B1B6803F48073002BF0D07B68DB68A6
:1020FC00012B06D16F4B1B6A6E4A43F0010313622E
:10210C002DE07B68DB68002B0CD16A4B1B6A694A9B
:10211C0023F001031362674B1B6A664A23F0040326
:10212C0013621CE07B68DB68052B0CD1614B1B6ACE
:10213C00604A43F0040313625E4B1B6A5D4A43F032
:10214C00010313620BE05B4B1B6A5A4A23F0010339
:10215C001362584B1B6A574A23F0040313627B68C3
:10216C00DB68002B15D0FFF767FB38610AE0FFF73F
:10217C0063FB02463B69D31A41F28832934201D980
:10218C000323B1E04B4B1B6A03F00203002BEED090
:10219C0014E0FFF751FB38610AE0FFF74DFB0246F4
:1021AC003B69D31A41F28832934201D903239BE055
:1021BC00404B1B6A03F00203002BEED1FB7D012B7D
:1021CC0005D13C4BDB693B4A23F08053D3617B68E0
:1021DC00DB69002B00F08780364B5B6803F00C0347
:1021EC00082B61D07B68DB69022B46D1334B002274
:1021FC001A60FFF721FB386108E0FFF71DFB024670
:10220C003B69D31A022B01D903236DE0294B1B68C0
:10221C0003F00073002BF0D17B681B6AB3F5803F91
:10222C0008D1244B5B6823F400327B689B682149FE
:10223C0013434B601F4B5B6823F474127B68196A61
:10224C007B685B6A0B431B4913434B601B4B01229E
:10225C001A60FFF7F1FA386108E0FFF7EDFA024671
:10226C003B69D31A022B01D903233DE0114B1B68A8
:10227C0003F00073002BF0D035E0104B00221A60F5
:10228C00FFF7DAFA386108E0FFF7D6FA02463B6945
:10229C00D31A022B01D9032326E0064B1B6803F04B
:1022AC000073002BF0D11EE07B68DB69012B07D19A
:1022BC00012319E00010024000700040600042420F
:1022CC000B4B5B68FB60FB6803F480327B681B6A1A
:1022DC009A4206D1FB6803F470127B685B6A9A42DF
:1022EC0001D0012300E0002318461837BD4680BDFD
:1022FC000010024080B584B000AF786039607B6814
:10230C00002B01D10123D0E06A4B1B6803F00703BB
:10231C003A689A4210D9674B1B6823F0070265494B
:10232C003B6813430B60634B1B6803F007033A686D
:10233C009A4201D00123B8E07B681B6803F00203CA
:10234C00002B20D07B681B6803F00403002B05D006
:10235C00594B5B68584A43F4E06353607B681B68D5
:10236C0003F00803002B05D0534B5B68524A43F42F
:10237C0060535360504B5B6823F0F0027B689B68A2
:10238C004D4913434B607B681B6803F00103002B22
:10239C0040D07B685B68012B07D1474B1B6803F46B
:1023AC000033002B15D101237FE07B685B68022B87
:1023BC0007D1414B1B6803F00073002B09D101239B
:1023CC0073E03D4B1B6803F00203002B01D101238A
:1023DC006BE0394B5B6823F003027B685B68364922
:1023EC0013434B60FFF728FAF8600AE0FFF724FA72
:1023FC000246FB68D31A41F28832934201D9032377
:10240C0053E02D4B5B6803F00C027B685B689B0010
:10241C009A42EBD1274B1B6803F007033A689A42A8
:10242C0010D2244B1B6823F0070222493B6813434C
:10243C000B60204B1B6803F007033A689A4201D0EB
:10244C00012332E07B681B6803F00403002B08D0E7
:10245C00194B5B6823F4E0627B68DB681649134315
:10246C004B607B681B6803F00803002B09D0124BF0
:10247C005B6823F460527B681B69DB000E491343D5
:10248C004B6000F021F802460B4B5B681B0903F014
:10249C000F030A49CB5C22FA03F3094A1360094B78
:1024AC001B681846FFF786F9002318461037BD46FF
:1024BC0080BD00BF0020024000100240142E000816
:1024CC00240000202800002090B48AB000AF294BD3
:1024DC003C1D0FCB84E80F0040F201233B8000230E
:1024EC00FB610023BB6100237B6200237B61002323
:1024FC003B62214B5B68FB61FB6903F00C03042B13
:10250C0002D0082B03D02BE01C4B3B622BE0FB6969
:10251C009B0C03F00F0328333B4413F8243C7B61E2
:10252C00FB6903F48033002B12D0134B5B685B0CFC
:10253C0003F0010328333B4413F8283CBB617B694F
:10254C000E4A03FB02F2BB69B2FBF3F37B6204E0BD
:10255C007B690B4A02FB03F37B627B6A3B6202E002
:10256C00064B3B6200BF3B6A18462837BD4690BC01
:10257C00704700BF042E00080010024000127A00C1
:10258C0000093D0080B485B000AF78600A4B1B6831
:10259C000A4AA2FB03235B0A7A6802FB03F3FB6083
:1025AC0000BFFB685A1EFA60002BF9D100BF00BFB8
:1025BC001437BD4680BC704724000020D34D6210F8
:1025CC0080B582B000AF78607B68002B01D101230D
:1025DC0041E07B6893F83D30DBB2002B06D17B6881
:1025EC00002283F83C207868FFF74CF87B680222C5
:1025FC0083F83D207B681A687B68043319461046C3
:10260C0000F06AFA7B68012283F846207B6801227D
:10261C0083F83E207B68012283F83F207B680122EF
:10262C0083F840207B68012283F841207B680122DB
:10263C0083F842207B68012283F843207B680122C7
:10264C0083F844207B68012283F845207B680122B3
:10265C0083F83D20002318460837BD4680BD000096
:10266C0080B485B000AF78607B6893F83D30DBB206
:10267C00012B01D0012335E07B68022283F83D2039
:10268C007B681B68DA687B681B6842F00102DA60C1
:10269C007B681B68164A934209D07B681B68B3F1B0
:1026AC00804F04D07B681B68124A934211D17B681F
:1026BC001B689B6803F00703FB60FB68062B10D0BC
:1026CC007B681B681A687B681B6842F001021A6001
:1026DC0007E07B681B681A687B681B6842F0010284
:1026EC001A60002318461437BD4680BC704700BFE3
:1026FC00002C01400004004080B582B000AF78602F
:10270C007B681B681B6903F00203022B22D17B68D8
:10271C001B68DB6803F00203022B1BD17B681B6870
:10272C006FF002021A617B6801221A777B681B68C2
:10273C009B6903F00303002B03D0786800F0B1F918
:10274C0005E0786800F0A4F9786800F0B3F97B68CC
:10275C0000221A777B681B681B6903F00403042BA7
:10276C0022D17B681B68DB6803F00403042B1BD1AC
:10277C007B681B686FF004021A617B6802221A776F
:10278C007B681B689B6903F44073002B03D078684B
:10279C0000F087F905E0786800F07AF9786800F0C5
:1027AC0089F97B6800221A777B681B681B6903F028
:1027BC000803082B22D17B681B68DB6803F0080335
:1027CC00082B1BD17B681B686FF008021A617B68B1
:1027DC0004221A777B681B68DB6903F00303002B68
:1027EC0003D0786800F05DF905E0786800F050F9E6
:1027FC00786800F05FF97B6800221A777B681B68A9
:10280C001B6903F01003102B22D17B681B68DB685B
:10281C0003F01003102B1BD17B681B686FF01002A8
:10282C001A617B6808221A777B681B68DB6903F4E2
:10283C004073002B03D0786800F033F905E078681A
:10284C0000F026F9786800F035F97B6800221A77D9
:10285C007B681B681B6903F00103012B0ED17B689D
:10286C001B68DB6803F00103012B07D17B681B6835
:10287C006FF001021A617868FEF7F6FD7B681B6841
:10288C001B6903F08003802B0ED17B681B68DB680F
:10289C0003F08003802B07D17B681B686FF08002EC
:1028AC001A61786800F067FA7B681B681B6903F093
:1028BC004003402B0ED17B681B68DB6803F04003A0
:1028CC00402B07D17B681B686FF040021A61786857
:1028DC0000F0F9F87B681B681B6903F02003202BC0
:1028EC000ED17B681B68DB6803F02003202B07D11B
:1028FC007B681B686FF020021A61786800F032FA6E
:10290C0000BF0837BD4680BD80B584B000AF78608D
:10291C0039607B6893F83C30012B01D10223B3E082
:10292C007B68012283F83C207B68022283F83D20DF
:10293C007B681B689B68FB60FB6823F07703FB607C
:10294C00FB6823F47F43FB607B681B68FA689A6022
:10295C003B681B68B3F5005F3ED0B3F5005F00F237
:10296C008780B3F5805F00F08580B3F5805F7FD8FA
:10297C00702B1AD0702B7BD8602B50D0602B77D853
:10298C00502B3CD0502B73D8402B58D0402B6FD8A9
:10299C00302B64D0302B6BD8202B60D0202B67D8F9
:1029AC00002B5CD0102B5AD062E07B6818683B6817
:1029BC0099683B685A683B68DB6800F05CF97B6897
:1029CC001B689B68FB60FB6843F07703FB607B68CC
:1029DC001B68FA689A604EE07B6818683B689968D7
:1029EC003B685A683B68DB6800F045F97B681B68FC
:1029FC009A687B681B6842F480429A603BE07B6873
:102A0C0018683B6859683B68DB681A4600F0BCF8EC
:102A1C007B681B685021184600F013F92BE07B688B
:102A2C0018683B6859683B68DB681A4600F0DAF8AE
:102A3C007B681B686021184600F003F91BE07B687B
:102A4C0018683B6859683B68DB681A4600F09CF8CC
:102A5C007B681B684021184600F0F3F80BE07B689C
:102A6C001A683B681B681946104600F0EAF802E049
:102A7C0000BF00E000BF7B68012283F83D207B682B
:102A8C00002283F83C20002318461037BD4680BD39
:102A9C0080B483B000AF786000BF0C37BD4680BCFB
:102AAC00704780B483B000AF786000BF0C37BD4670
:102ABC0080BC704780B483B000AF786000BF0C3727
:102ACC00BD4680BC704780B483B000AF786000BF57
:102ADC000C37BD4680BC704780B485B000AF7860C1
:102AEC0039607B681B68FB607B68254A934207D082
:102AFC007B68B3F1804F03D07B68224A934208D1A4
:102B0C00FB6823F07003FB603B685B68FA68134357
:102B1C00FB607B681A4A934207D07B68B3F1804F05
:102B2C0003D07B68174A934208D1FB6823F44073A7
:102B3C00FB603B68DB68FA681343FB60FB6823F0BF
:102B4C0080023B685B691343FB607B68FA681A6020
:102B5C003B689A687B68DA623B681A687B689A62A1
:102B6C007B68074A934203D13B681A697B681A63F6
:102B7C007B6801225A6100BF1437BD4680BC704788
:102B8C00002C01400004004080B487B000AFF86016
:102B9C00B9607A60FB681B6A7B61FB681B6A23F077
:102BAC000102FB681A62FB689B693B613B6923F07D
:102BBC00F0033B617B681B013A6913433B617B6902
:102BCC0023F00A037B617A69BB6813437B61FB6862
:102BDC003A699A61FB687A691A6200BF1C37BD4674
:102BEC0080BC704780B487B000AFF860B9607A6081
:102BFC00FB681B6A23F01002FB681A62FB689B6976
:102C0C007B61FB681B6A3B617B6923F470437B61CE
:102C1C007B681B037A6913437B613B6923F0A00338
:102C2C003B61BB681B013A6913433B61FB687A69E2
:102C3C009A61FB683A691A6200BF1C37BD4680BCBA
:102C4C00704780B485B000AF786039607B689B6852
:102C5C00FB60FB6823F07003FB603A68FB6813436E
:102C6C0043F00703FB607B68FA689A6000BF143777
:102C7C00BD4680BC704780B487B000AFF860B960C7
:102C8C007A603B60FB689B687B617B6923F47F43C4
:102C9C007B613B681A027B681A43BB6813437A69F1
:102CAC0013437B61FB687A699A6000BF1C37BD4691
:102CBC0080BC704780B485B000AF786039607B68A9
:102CCC0093F83C30012B01D1022341E07B680122B7
:102CDC0083F83C207B68022283F83D207B681B68CC
:102CEC005B68FB607B681B689B68BB60FB6823F0C0
:102CFC007003FB603B681B68FA681343FB607B68DE
:102D0C001B68FA685A607B681B68144A934209D0A6
:102D1C007B681B68B3F1804F04D07B681B68104A3A
:102D2C0093420CD1BB6823F08003BB603B685B68AB
:102D3C00BA681343BB607B681B68BA689A607B688F
:102D4C00012283F83D207B68002283F83C2000237D
:102D5C0018461437BD4680BC704700BF002C01409C
:102D6C000004004080B483B000AF786000BF0C3723
:102D7C00BD4680BC704780B483B000AF786000BFA4
:102D8C000C37BD4680BC704770B500260C4D0D4C01
:102D9C00641BA410A64209D100F022F800260A4DAB
:102DAC000A4C641BA410A64205D170BD55F8043B17
:102DBC0098470136EEE755F8043B98470136F2E7A1
:102DCC00242E0008242E0008242E0008282E00088B
:102DDC0003460244934200D1704703F8011BF9E704
:102DEC00F8B500BFF8BC08BC9E467047F8B500BFEC
:082DFC00F8BC08BC9E467047BC
:102E040002030405060708090A0B0C0D0E0F101027
:102E14000000000000000000010203040607080986
:042E24003101000870
:042E28000D01000890
:102E2C0001010100010101000020004000800000B0
:102E3C000010014000100140001001400101010090
:102E4C00050203000024F400100000000100000043
:04000005080017498F
:00000001FF
